:020000040000FA
:100000000C9454050C947C050C947C050C94171DE1
:100010000C94171D0C94171D0C947C050C947C05F6
:100020000C947C050C947C050C947C050C947C054C
:100030000C947C050C947C050C947C050C947C053C
:100040000C94AE1B0C947C050C947C1B0C94561BDE
:100050000C947C050C947C050C947C050C947C051C
:100060000C94F81B0C947C05000000002400270071
:100070002A0000000008000201000003040700003D
:10008000000000000000536F756E64706F640050D4
:100090006C6561736520696E736572742074686540
:1000A00020534420636172642100455100566F6CF7
:1000B000756D650053657474696E670044656661AB
:1000C000756C742053637265656E00000000002338
:1000D000002600290000000000250028002B000455
:1000E00004040404040404020202020202030303DF
:1000F00003030301020408102040800102040810D9
:10010000200102040810200F000404050603030761
:100110001C2000000E000E000000000001414126DE
:1001200070E1A112348CC8214245880914868820C8
:10013000214404092122480811414244081522544F
:100140004CD02000425A1C24C10F823C48F220C9E6
:1001500083240F8210791084C88320441E0421F266
:1001600020085148884242141222848822441421D3
:10017000A20811458828424411228A10D190108586
:100180008428244421210A09910741883C0842E43B
:100190004110220F923C48F220C983240800430FEB
:1001A000C8609170225488505385380100440CC8AF
:1001B000609170E2C403142700450AC378911202CB
:1001C000859000460BC370911044048A2000470EAE
:1001D000A8A0911128C4901166488901480A8CB1E1
:1001E000A14008FF470449148BB1A1107460B143CA
:1001F000491E3C0872A8D8C0A0004A0CC7609120D4
:10020000680C096B08054B0DC7609110888C0913A9
:100210006406094C1D1022A1796A1147C40409140F
:100220002450904041A20A093251885724CC9205AB
:100230004D14082191134C840822264294085144FD
:100240000A4181004E0E0629911348081515890AA6
:1002500002004F0B04319113E4C110310100000082
:1002600004FFFF0000BE00020204040205050A109C
:10027000FFFD09FF09FF014F02C4082220050042CB
:100280000921079142C991022207335A4AB2022337
:10029000148A413D8A19C73CEE98618DC6D031E37E
:1002A000982100240D95426B5E95CA3BA96A4700D0
:1002B000251499429D8E558E292395C94C268DCAA9
:1002C0009C62AD00260E96C29B8E554619EA98F4A4
:1002D0008E2B2706315AC9002808A33E6A2A7B17AD
:1002E0002909A33E4A2E7B95002A06335ECA6A2B53
:1002F0000B554A6B4671C88C22002C0732BE5952EE
:10030000002D061352CA002E06114249002F0F95E8
:10031000423BCA19E58C724639A38C00300994C25D
:100320009A8A7E2605310893425A927D0D320A94AC
:10033000C29A8AB96CE711330C94C2CAC89546397F
:10034000CBA400340A94C27A542D397403350C942A
:10035000C2CAD079A39C655200360A94C26A3BAFE8
:10036000682605370A94C2CAC8658EB909380B9445
:10037000C29A8A6652D14C0A390A94C29A8A66DABB
:1003800065093A065146490E3B0862C25986490141
:100390003C0A74C27A6CA38C320A3D0844CACAC8AB
:1003A000E4083E0B74C24A46196514DB003F0D9504
:1003B00042DBCA1965946B94E908401188C2ECC805
:1003C0001995564C2A26A954268702410A9542DBE4
:1003D000CAF618D91D420C9542CB48D91E2ADB43D8
:1003E00001430F9542DBCA1A6594514619E5B400E2
:1003F000440A9542CBACB2CF3401450A94C2CAD06C
:10040000F5CAF508460A94C2CAD0F5CA6D00470D70
:100410009542DBCA1A659446B6D302480A95424B08
:10042000768F91DD0149089342CA8A7D0D4A0E9567
:1004300042EBCE28A38C32CAA88C124B0E95424BAD
:100440009629A652A758C594034C0894C24AEEF7C1
:10045000084D1097424C8AC9196594514619659404
:10046000054E0E96C24B467BAB28934CFA46014F85
:10047000099542DBCA7EA705500E9542CB48D91E8E
:100480002AA38C32CA08510A9542DBCABE928C2A32
:10049000520C9542CB48D91EAAACB20E530E9542CF
:1004A000DBCA1A65B861463A2D0054109542CB90CC
:1004B00019659451461965945104550995424BF6B6
:1004C000775A00560D95424B76A732C594338A0071
:1004D000571299424DA634A5B3AE3A5333B56B9437
:1004E0002300580D95424BD6A94CB98AA9D601597B
:1004F0000F95424BD6A94C39A38C32CA28025A0E0A
:100500009542CBD02867946B94331A025B089342D0
:10051000CA887D0E5C1095424B86196598518619E4
:10052000659851005D089342CAEC73045E08355E1D
:100530006B4E75005F061542CB10600622DE490C3B
:10054000610A64C29A4669449906620A94C24AAE34
:1005500057748E04630964C29A8ABA4C0A64099477
:10056000C27A6B44671A650964C29A8A6367346603
:100570000A93426A8A69C52E00670A74BEDA8866E1
:10058000DA2301680994C24AAE57F40C6907814224
:10059000491A036A0A94BE7AA6725B26056B0B940D
:1005A000C24A6EAA24652A036C0792C289EA0F6DBB
:1005B0000C67424C8AC919659451166E0864C24A88
:1005C0004AA6336F0964C29A8ACEA400700A74BE28
:1005D000CA8AE6483903710974BEDA8866DA057298
:1005E0000964C24A1A31B701730B64C29A8A29A3FB
:1005F000322900740983425A4C2BB603750864C231
:100600004AF44C0A760B65424BD6A94C39A30877BD
:100610000D67424C8632CAA8BA634E00780A64C29B
:100620004A9449AA2803790A74BE4A74A69D140004
:100630007A0964C2CAC8B13D027B0B94C2AACA65DA
:1006400046B946027C069142C9037D0A93424A8E0E
:10065000758A55047E08354E5B4E7502A10791429E
:10066000491A23A20D85426B5E958A29A66A470026
:10067000A30E9542BBCC280E9933CA280F01A40CB7
:10068000574A4C5A75CC31A7B402A50D95424BD6AA
:10069000A94C39EFBC2300A6069142C91EA70D95AF
:1006A00042DBCA1AEA9435D46901A80614E24A0C5E
:1006B000A911A742CCA18E348E4C699932CC304519
:1006C0002DAA0A64CE9A4669449906AB0B56C66BAE
:1006D0001553CC31C700AC093546CBD028A300ADAB
:1006E00006134ECA00AE0FA5426B4639C554EB54F3
:1006F000A69C5104AF0614E2CA08B00944D69A8AEF
:10070000322900B10C75466B4671C88C323504B283
:100710000854D29A8ACD11B30954D29A8A554C0AF8
:10072000B40622DE9902B50984BA4AF41C3B03B62A
:100730000F86C2DB9849A6B472CA29A79C02B706E5
:1007400011524900B80733B75A5E00B90752D2892F
:10075000EA00BA0853525A655500BB0C56C64BCC3A
:1007600031C714538C00BC0F96C28B8619B632CA9F
:10077000A8BD618601BD1297428CC619C79C324C38
:1007800032C50C33CC7004BE1198C29C8635CEB0F5
:10079000CA2AE654C64D652ABF0D95426BA633CAD8
:1007A00035CA28A705C00DC5425B86995CD91E23B2
:1007B000BB03C10CC5427B4DAE6C8F91DD01C20DF8
:1007C000C5426B4E995AD91E23BB03C30ED5425B5B
:1007D0004E75A656B6C7C8EE00C40CB5425B4DAD0B
:1007E0006C8F91DD01C50DC5426B4E39AF6C8F9199
:1007F000DD01C60B96C2DB983DC7887D0EC711C5CB
:1008000036DBCA1A6594514619E5B4338C12C81206
:10081000C5425B86991A1B6594D148196594D1101D
:10082000C912C5426BCEE4D828A38C46CA28A38C33
:100830008600CA12C5426B4E198F8D32CA68A48CCD
:1008400032CA6808CB11B5425B8DC7461965345270
:100850004619653404CC0AC3424ACE68C5BE06CDEB
:100860000AC3426ACA68C5BE06CE09C3425A7BC5DE
:10087000BE06CF09B3424ACA2BF635D00F96C2DB6B
:100880008E75CA23A69C728A7102D111C6C28B468C
:100890006D1433DA5B459964D2370AD20CC5425BDA
:1008A00086995CD9EFB400D30BC5427B4DAEEC7793
:1008B0005A00D40CC5426B4E995AD9EFB400D50DED
:1008C000D5425B4E75A656F63B2D00D60BB5425B66
:1008D0004DADEC775A00D709554A4B4E755507D8A0
:1008E0000F9742ECCE2AC7285329EBA4F304D90B67
:1008F000C5425B8699CAFE4E0BDA0AC5427B4D653E
:100900007FA705DB0BC5426B4E19677FA705DC0A85
:10091000B5425B8DB3BFD302DD11C5427B4D659DF2
:10092000CA9433CA28A38C2200DE0B94C24ACE2B71
:100930009A23E50CDF0C95429BACB24C65952D05D6
:10094000E00C94C25A46196B94469469E10B94C228
:100950006A4D6994469469E20C94C29A8A196A9421
:10096000469469E30C94C25A52196B94469469E414
:100970000C84C24ACC50A334A24C03E50DA4C25A45
:100980004C31531AA511651AE60D67429C8D621A07
:1009900023E6585900E70C94B69A8ABA4C3AA3A4B5
:1009A00000E80C94C25A4619AB38764603E90B941A
:1009B000C26A4DA938764603EA0C94C29A8A19AAEB
:1009C00038764603EB0B84C24ACC50C5B1331AECDF
:1009D0000892C249CCA907ED0892C2994EBD00EE1B
:1009E0000993425A1BC55E00EF0983424ACA28F6A2
:1009F00002F00B94C2CACE288DE84C0AF10B94C2C7
:100A00005A5219A6643A03F20B94C25A4619ABE83B
:100A10004C0AF30A94C26A4DA9E84C0AF40B94C23A
:100A20009A8A19AAE84C0AF50B94C25A5219ABE8F3
:100A30004C0AF60B84C24ACC5045675200F70A555F
:100A40004A6BA686A62200F80C66C2AB2A2BA962C6
:100A5000952400F90B94C25A461946CFA400FA0A0D
:100A600094C26A8DA3675200FB0B94C29A8A1945FF
:100A7000CFA400FC0A84C24ACC287A2605FD0BA428
:100A8000BE6A8DA333EDA400FE0963424A5449AD0A
:100A900008FF0B94BE4ACC283AD34E0A000000044B
:100AA000FFFF0000FC1DBF2311241FBECFEFD8E0C5
:100AB000DEBFCDBF11E0A0E0B1E0EEE8F8E402C097
:100AC00005900D92AA3CB107D9F725E0AAECB1E058
:100AD00001C01D92AA3EB207E1F715E0C3E5D5E0DB
:100AE00004C02197FE010E941324C235D107C9F723
:100AF0000E949E1F0C943A240C940000662329F057
:100B00006A3019F0862F90E008958FEF9FEF0895D7
:100B1000AF92BF92CF92DF92EF92FF920F93CF935B
:100B2000DF93EC01DA017901942F9770E1E0F0E0B6
:100B30009F01092E01C0220F0A94EAF7522F6E017D
:100B40008AE8C80ED11CF601808140E0823018F49A
:100B5000422F813049F15D01F8EFAF22E8ADF9ADE8
:100B600028813981D90150968C918A9D90018B9D65
:100B7000300D1124620F731FDF01A60FB71F011183
:100B80001AC0EA0EFB1E8C91842B85278D93AE151F
:100B9000BF05C9F7DF91CF910F91FF90EF90DF90E4
:100BA000CF90BF90AF90089550E0D5CF440F550F30
:100BB000E114F10479F33C91342B35273C939F5F8A
:100BC0009770E1E0EE1AF1089111F0CF2CAD3DAD38
:100BD000A20FB31FF6018081823028F4813009F022
:100BE00051E041E0E5CF51E0E3CF80E0089590E0AF
:100BF00080E008958093B00408959B01DC0118966D
:100C0000ED91FC9141E067E1099481E0809304015A
:100C100090910101992351F080910301823030F4C9
:100C2000809103018F5F80930301089580910201F9
:100C3000843020F480910301813001F18091020120
:100C4000813051F4809100018E3130F42091030104
:100C5000223011F49923C1F080910201823069F4AD
:100C60008091F602853048F420910301223029F466
:100C7000911103C08F5F8093F60208958091020165
:100C80008F5F8093020108958F5F80930001089524
:100C9000EF92FF920F931F93CF93DF938C017B0111
:100CA000D0E0C0E0F701EC0FFD1F6491662361F016
:100CB000D801ED91FC910190F081E02DC8010995DA
:100CC000892B11F02196EECFCE01DF91CF911F91AC
:100CD0000F91FF90EF900895AF92BF92CF92DF9265
:100CE000EF92FF920F931F93CF93DF936C017B01E1
:100CF0008B01040F151FEB015E01AE18BF08C01772
:100D0000D10759F06991D601ED91FC910190F081E4
:100D1000E02DC6010995892B79F7C501DF91CF91A7
:100D20001F910F91FF90EF90DF90CF90BF90AF9009
:100D30000895FC01538D448D252F30E0842F90E0E1
:100D4000821B930B541710F0CF96089501970895C6
:100D5000FC01918D828D981761F0A28DAE0FBF2F8F
:100D6000B11D5D968C91928D9F5F9F73928F90E0E5
:100D700008958FEF9FEF0895FC01918D828D981754
:100D800031F0828DE80FF11D858D90E008958FEF91
:100D90009FEF0895FC01918D228D892F90E0805C5A
:100DA0009F4F821B91098F739927089589EF92E0D5
:100DB0000E94CA0621E0892B09F420E0822F0895C1
:100DC00080E090E0892B29F00E94D60681110C94D6
:100DD00000000895FC01A48DA80FB92FB11DA35ADE
:100DE000BF4F2C91848D90E001968F739927848F4B
:100DF000A689B7892C93A089B1898C91837080646E
:100E00008C93938D848D981306C00288F389E02D0E
:100E100080818F7D80830895EF92FF920F931F93BF
:100E2000CF93DF93EC0181E0888F9B8D8C8D98139D
:100E30001AC0E889F989808185FF15C09FB7F894A9
:100E4000EE89FF896083E889F989808183708064F5
:100E500080839FBF81E090E0DF91CF911F910F9140
:100E6000FF90EF900895F62E0B8D10E00F5F1F4F4F
:100E70000F731127E02E8C8D8E110CC00FB607FC5E
:100E8000FACFE889F989808185FFF5CFCE010E94EC
:100E9000EA06F1CFEB8DEC0FFD2FF11DE35AFF4F6A
:100EA000F0829FB7F8940B8FEA89FB89808180627A
:100EB000CFCFCF93DF93EC01888D8823B9F0AA8937
:100EC000BB89E889F9898C9185FD03C0808186FD05
:100ED0000DC00FB607FCF7CF8C9185FFF2CF808154
:100EE00085FFEDCFCE010E94EA06E9CFDF91CF91D9
:100EF0000895833081F028F4813099F08230A9F090
:100F000008958730A9F08830C9F08430B1F4809119
:100F100080008F7D03C0809180008F778093800058
:100F2000089584B58F7784BD089584B58F7DFBCFF8
:100F30008091B0008F778093B00008958091B000C9
:100F40008F7DF9CFCF93DF93282F30E0F901EE5852
:100F5000FF4F8491F901ED50FF4FD491F901E15217
:100F6000FF4FC491CC23A1F081110E947907EC2F8F
:100F7000F0E0EE0FFF1FE553FF4FA591B491EC9108
:100F8000ED2381E090E009F480E0DF91CF910895B6
:100F900080E090E0FACF1F93CF93DF93282F30E0CB
:100FA000F901EE58FF4F8491F901ED50FF4FD491B4
:100FB000F901E152FF4FC491CC23A9F0162F811102
:100FC0000E947907EC2FF0E0EE0FFF1FEB52FF4F6E
:100FD000A591B4918FB7F894EC91111108C0D095F8
:100FE000DE23DC938FBFDF91CF911F910895DE2B1D
:100FF000F8CFCF93DF9390E0FC01ED50FF4F2491A9
:1010000081529F4FFC0184918823C9F090E0880FA2
:10101000991FFC01E859FF4FA591B491FC01EB52D7
:10102000FF4FC591D49161110DC09FB7F8948C9179
:10103000209582238C938881282328839FBFDF916A
:10104000CF910895623051F49FB7F8943C91822F6C
:10105000809583238C93E8812E2BEFCF8FB7F89464
:10106000EC912E2B2C938FBFEACF3FB7F894809151
:10107000EE029091EF02A091F002B091F10226B53C
:10108000A89B05C02F3F19F00196A11DB11D3FBFC0
:10109000BA2FA92F982F8827BC01CD01620F711D8F
:1010A000811D911D42E0660F771F881F991F4A9589
:1010B000D1F708958F929F92AF92BF92CF92DF9215
:1010C000EF92FF926B017C010E9435084B015C019D
:1010D000C114D104E104F104B9F00E943508681983
:1010E00079098A099B09683E73408105910580F35F
:1010F00021E0C21AD108E108F10888EE880E83E0E9
:10110000981EA11CB11CE4CFFF90EF90DF90CF9010
:10111000BF90AF909F908F9008958091B804909168
:10112000B904DC01ED91FC910084F185E02D099575
:10113000892B09F4A6C060E070E0CB010E945A0838
:101140002091D6048091B8049091B904DC01ED910E
:10115000FC910284F385E02D21110BC00995809349
:10116000C2048E37D1F68091D6048F5F8093D60467
:10117000D4CF09959091D604E92FF0E0E854FB4FC5
:1011800082879230A9F09930C9F0913099F48F3F5D
:1011900089F01092D60481E08093D8041092DB0489
:1011A0001092DA048093DC041092DD0480E008954C
:1011B000863079F79F5F9093D604AFCF8F3E49F783
:1011C0002091C4048091C304280F3327331FE0917A
:1011D000C504C9018E0F911D2091C604280F392F17
:1011E000311D4091C70450E0240F351F8091C80481
:1011F00090E06091C90470E0762F6627F091CA04F0
:101200006F0F711D280F391F319521953109621714
:10121000730709F0BECF1092D604E13419F410928E
:10122000DD042FC0E093D904542F4427840F951F69
:101230009093DB048093DA04EA53E63108F046C069
:10124000F0E0EB5DF64F0C94132452095A093B0968
:101250003B0964094409620966096409640964096F
:101260006409640964096409640966096409640914
:1012700064096409640985E08093D80481E080935F
:10128000DC048091DC04089580FF02C089E0F4CF83
:1012900081FF02C084E0F0CF83709927892B89F306
:1012A0008AE0EACF80FF02C087E0E6CF81FFE9CF86
:1012B00082E0E2CF80FF02C088E0DECF81FFE1CF95
:1012C00083E0DACF86E0D8CF8BE0D6CF81E0809381
:1012D000D8041092DB041092DA048093DC049FCFD0
:1012E0002FB7F8946091EA027091EB028091EC02C2
:1012F0009091ED022FBF08958F929F92AF92BF926F
:10130000CF92DF92EF92FF92CF936B017C010E940C
:1013100070094B015C01C114D104E104F10441F4F2
:10132000C090BE04D090BF04E090C004F090C1040F
:101330000E948D08C82F811118C00E947009681979
:1013400079098A099B09C616D706E806F906C0F48A
:101350001092D6041092D8041092DB041092DA0492
:1013600081E08093DC041092DD048C2FCF91FF90FC
:10137000EF90DF90CF90BF90AF909F908F900895A7
:1013800060E070E0CB010E945A08D2CF8093CF0476
:10139000272F30E07093D1046093D2044091CE04A3
:1013A0009091CD04490F5527551F840F952F911DFE
:1013B0004091D004840F911D820F931F680F792FE5
:1013C000711D7195619571097093D3046093D40474
:1013D000442379F08091DD04882359F060E070E0C7
:1013E000CB010E945A0860E070E0CB010E947C09AA
:1013F000F1CF8091B8049091B904DC01ED91FC919A
:101400000280F381E02D4AE050E06CEC74E0099535
:101410000E9470096093BA047093BB048093BC046B
:101420009093BD048091D00491E0811101C090E0BF
:101430009093DD04811106C06AE070E080E090E0E6
:101440000C945A0808954F925F926F927F92AF92D8
:10145000BF92CF92DF92EF92FF920F931F93CF93A1
:10146000DF93FC012081318137FD97C0EC01822F91
:101470000E94A2078C010E9470095E01FDE3AF0E7D
:10148000B11CF50160837183828393832FA938ADEA
:1014900002171307D1F5C9ACDAACEBACFCAC2B01ED
:1014A0003C014C185D086E087F08CA80DB80F12C77
:1014B000E12C4C145D046E047F0410F01EAB0DABE8
:1014C000EDA8FEA8CA84DB848E010F5B1F4FF801D4
:1014D00040805180628073809B01AC0124193509E2
:1014E0004609570929013A012AA93BA922303105A9
:1014F00009F482C08CF42115310539F12130310510
:1015000009F45AC01BAA1AAA48C069AF7AAF8BAFB8
:101510009CAF18AF0FABD4CF2630310509F4C5C04E
:101520002730310509F4F5C02330310559F7CE14C1
:10153000DF0409F06CC021E030E03BAB2AABF801DE
:10154000608371838283938328C08CA9811110C02A
:1015500088859985B0E0A0E084159505A605B705B6
:1015600038F4E8A9F9A9309719F081E08CAB099516
:10157000CE14DF0491F481E090E09BAB8AABF501DF
:1015800080819181A281B381F80180839183A283BC
:10159000B383CB5BDF4F19821882DF91CF911F910C
:1015A0000F91FF90EF90DF90CF90BF90AF907F9022
:1015B0006F905F904F90089522E030E0CE14DF04EA
:1015C00009F0BBCF8E819F81B0E0A0E08415950526
:1015D000A605B70510F7EE8DFF8D309709F0099538
:1015E000E8A1F9A1309719F08AA19BA1099586E09D
:1015F00090E09BAB8AABD1CFFE01EB5BFF4F8081CC
:10160000918101969183808383E090E0F2CF7E0107
:10161000F5E4EF0EF11CF701808191814C815D8131
:1016200070E060E0441655066606770638F4329698
:10163000208131812817390709F0AFCF813091051A
:10164000D1F4EC85FD85309709F00995EE85FF858D
:10165000309719F08889998909951BAA1AAAF70168
:10166000118210820E947009F80160837183828365
:1016700093831CAA92CF029761F4EA89FB89309781
:1016800009F00995EC89FD89309739F38E899F8996
:10169000E3CFE88DF98D309709F00995EA8DFB8D40
:1016A0003097D9F28C8D9D8DD7CFCE14DF0419F0F1
:1016B00087E090E09ECF8E01055B1F4FF801C08050
:1016C000D180E280F3806C197D098E099F093297E1
:1016D000C080D180F12CE12C6C157D058E059F0515
:1016E00008F45BCFEAA5FBA5309709F00995ECA5B6
:1016F000FDA5309719F08EA59FA50995F50180816C
:101700009181A281B381F80180839183A283B38305
:1017100044CFECA1FDA1309709F00995EEA1FFA1FE
:10172000309719F088A599A509951BAA1AAAFE0158
:10173000EB5BFF4F95CF20919D02260F3327331F80
:1017400021323105ECF42091C302FC0190E080E0ED
:10175000243069F082E00895A0919D022191AC01AE
:1017600045585D4FA40FB52FB11D2C9301968617D8
:1017700098F380919D02680F60939D0280E0089528
:1017800081E008951092C30281E08093C502109217
:10179000C40261E082E10E94CB0761E083E10E9424
:1017A000CB07E9EBF0E080818E7F808380818D7FA5
:1017B000808388E48093B80085E48093BC0008951A
:1017C000CF93DF9391E090937A028823B9F0C09190
:1017D000B800D091BA008091BC008A7B8093BC0095
:1017E00060E082E10E94CB0760E083E10E94CB07CA
:1017F0000E94C20BD093BA00C093B800DF91CF9182
:101800000895089508950895E091720280917102FB
:10181000E81730F4F0E0EF5AFD4F808190E0089532
:101820008FEF9FEF089590917202809171022FEFD8
:101830003FEF981748F4E92FF0E0EF5AFD4F208171
:1018400030E09F5F90937202C90108958091710208
:1018500090917202891B990B0895CF92DF92EF92BB
:10186000FF920F931F93CF93DF937C01CB018A01EB
:1018700020915002222389F0EB016B01C40ED51E8A
:10188000CC15DD0569F06991D701ED91FC910190CE
:10189000F081E02DC7010995F3CF642F0E949B0BC7
:1018A000C801DF91CF911F910F91FF90EF90DF90D2
:1018B000CF900895CF93DF931F92CDB7DEB76983A2
:1018C000209150022223F9F020917302203258F027
:1018D00021E030E0FC013383228390E080E00F9030
:1018E000DF91CF91089580917402E82FF0E0E05DE0
:1018F000FD4F998190838F5F809374028093730270
:1019000081E090E0ECCF61E0CE0101960E949B0B5C
:10191000F7CFDC011A96ED91FC9130E020E00994BC
:10192000DC011696ED91FC9130E020E040E069E1A9
:101930000994DC011696ED91FC9130E020E040E046
:1019400068E109949A01DC011696ED91FC91462F0D
:1019500067E10994EF92FF920F931F93CF93DF9368
:101960001F92CDB7DEB77C018B01D8016C91673136
:1019700029F150F46531A0F40F90DF91CF911F91C0
:101980000F91FF90EF9008956A3118F16E3FA1F723
:10199000F8014181498369E2C7010E94890C0BC0AB
:1019A000F80141814983D7011696ED91FC9130E011
:1019B00020E0C70109950E5F1F4FD7CFF801818145
:1019C0008983AE014F5F5F4F61E0C7010E94A20CA7
:1019D000F2CF0F5F1F4FD7011696ED91FC9130E0CB
:1019E00020E040E0C7010995C0CF462FDC011696E4
:1019F000ED91FC9130E020E066E10994462FDC0196
:101A00001696ED91FC9130E020E065E10994EF92AB
:101A1000FF920F931F93CF93DF93EC01042F790173
:101A20006D3009F446C050F46B30C9F1693009F4E7
:101A30009FC06A3009F465C080E05CC06E3009F474
:101A40004BC06F3099F70E94990CF7011381110F69
:101A5000110F110F6C89160F60E4CE010E94FE0C6D
:101A6000612F62956F706061CE010E94FE0C612F44
:101A70006F70CE010E94F50CF7016481606BCE019E
:101A80000E94F50CF701408151816281660F660F5B
:101A9000660FCE010E94A20C0150A1F727C063E29D
:101AA00071E0442311F06EE171E0CE010E94AA0CB6
:101AB00020C0411109C067E171E00E94AA0CE881D1
:101AC000F98182898C8B15C060E171E00E94AA0CBB
:101AD000E881F9818389F6CF0E94990C61E8CE01F3
:101AE0000E94FE0C602FCE010E94F50CCE010E94D8
:101AF000900C81E0DF91CF911F910F91FF90EF90BB
:101B00000895EA85FB8530E020E040E068E2CE0100
:101B10000995EE81FF8130E020E040E064E1CE01F4
:101B2000099541E06BE4CE010E94890CE881F981BE
:101B3000448169E2CE010E94890C40E06BE4CE0151
:101B40000E94890CE881F981448169E2CE010E94FA
:101B5000890C41E06BE4CE010E94890CE881F98197
:101B6000458169E2CE010E94890C68E271E09DCF57
:101B70008DE591E09983888382E0A4CFDC011896FB
:101B8000ED91FC9130E020E040E069E10994DC0156
:101B90001896ED91FC9130E020E040E068E1099476
:101BA000CF93DF931F92CDB7DEB76983BE016F5F1E
:101BB0007F4F0E94FD050F90DF91CF910895EF9226
:101BC000FF921F93CF93DF93EC01162F7A010E94AF
:101BD000C70D60E4CE010E94D00DE885F98597011C
:101BE000412F67E1CE010995CE01DF91CF911F9181
:101BF000FF90EF900C94BE0DEF92FF921F93CF9346
:101C0000DF93EC01142F7901663181F138F46431EE
:101C100009F44BC0653179F080E022C06831C9F128
:101C200050F16931C9F780912F02882391F1CE01DB
:101C30000E94BE0D2EC080912F02882319F0CE0184
:101C40000E94BE0DCE010E94C70D60E0CE010E9431
:101C5000D00D612FCE010E94D00D81E080932F0224
:101C6000DF91CF911F91FF90EF900895642F0E9414
:101C7000D00D81E0F5CF80912F02882319F0CE019D
:101C80000E94BE0DA701193138F4612FCE010E94C8
:101C9000DF0D10922F02EDCF68E1CE010E94DF0D23
:101CA000185188E1E80EF11CEDCF8E898F3F11F4B9
:101CB00088E78E8BE885F9859701412F64E1CE0195
:101CC000DF91CF911F91FF90EF9009940F93FC014A
:101CD000E05CFF4F0190F081E02D4E1B5F0BDC01BB
:101CE000D496ED91FC9109950F910895CF93DF93D0
:101CF000FC01A081B18182AD90E09C0143E0220F04
:101D0000331F4A95E1F737AF26AF50962C91509785
:101D100048E0249F9001112435AF24AF23AD30E07B
:101D2000B90153E0660F771F5A95E1F7EF01C05CE8
:101D3000DF4F7983688351964C915197E901C80F21
:101D4000D91F50E04C175D0718F4CA01821B930B92
:101D5000EF01CE5BDF4F79836883229623E0880F03
:101D6000991F2A95E1F7860F971F998388832296FA
:101D700054968D919C91559799838883E85BFF4F8A
:101D800056968D919C9191838083DF91CF91089598
:101D90000F931F93FC01E25BFF4F0190F081E02D58
:101DA000DC01A05BBF4F0D90BC91A02D4A175B07D3
:101DB00040F4E017F10748F00417150730F080E011
:101DC00019C0E017F107C0F3FACFFC01E65BFF4F43
:101DD00040815181845B9F4FFC0180819181681714
:101DE000790758F481E04217530720F081E0261765
:101DF000370728F71F910F91089542175307B0F343
:101E0000DECF2F923F924F925F926F927F928F928E
:101E10009F92AF92BF92CF92DF92EF92FF920F9379
:101E20001F93CF93DF93CDB7DEB72A970FB6F89401
:101E3000DEBF0FBECDBF9A878987865B9F4F9A838F
:101E40008983FC0111821082E985FA85EA5BFF4FE4
:101E50004080518029853A85245B3F4F3C832B830A
:101E6000F90151824082E985FA85EE5BFF4F2080BF
:101E7000318029853A85225B3F4F3E832D83F901CE
:101E800031822082E985FA85EC5BFF4F60807180AA
:101E900029853A85205B3F4F38872F83F90171826E
:101EA0006082E985FA85E85AFF4FE080F180E98594
:101EB000FA85EC5AFF4FA080B180E985FA85EA5A8D
:101EC000FF4FC080D180E985FA85EE5AFF4F8080B0
:101ED000918087019501A601B40189859A850E94A8
:101EE000C80E29853A852C573F4F3A87298781119B
:101EF0001BC0F90110822A960FB6F894DEBF0FBE00
:101F0000CDBFDF91CF911F910F91FF90EF90DF90A8
:101F1000CF90BF90AF909F908F907F906F905F9089
:101F20004F903F902F90089581E0E985FA85808356
:101F30008114910421F0E981FA8191828082A414B4
:101F4000B50420F4EB81FC81B182A0822C143D0405
:101F500020F4ED81FE81D182C082E614F70458F6A8
:101F6000EF81F885F182E082C6CF0F93CF93DF93A4
:101F7000E02FDC01AC57BF4FFC91FF2309F460C098
:101F80002115310509F45CC02230310538F00230EA
:101F900009F04AC06F5F7F4F621B730B0E2F0170F9
:101FA000E0FD52C0FC01E25BFF4F0190F081E02DAB
:101FB0004E175F0708F444C0FC01E05BFF4F01903F
:101FC000F081E02D4E175F07D8F5FC01E45BFF4F71
:101FD0000190F081E02DDC01A65BBF4F0D90BC911C
:101FE000A02D260F371F2617370738F56E177F07E6
:101FF00018F59F0121503109A217B30708F56A1798
:102000007B0708F4BD012E173F0708F4F901E61B12
:10201000F70BEC01AEA9BFA914960D90BC91A02DB1
:102020009F01FD0109950CC0033009F0B7CF4F5F48
:102030005F4F421B530BB2CFBD016E177F07E0F21B
:10204000DF91CF910F910895FC01E65BFF4F019066
:10205000F081E02D6E177F0798F3FC01E45BFF4FE2
:102060000190F081E02D6E177F0750F7FC01E05BD7
:10207000FF4F0190F081E02DDC01A25BBF4F0D907E
:10208000BC91A02D240F351F24173507A8F44E1737
:102090005F0788F49F0121503109A217B30780F62A
:1020A0004A175B0708F4AD012E173F0708F4F90142
:1020B000E41BF50BAECFAD014E175F0708F6EDCF71
:1020C0000F93209174043091750462177307F0F038
:1020D000209176043091770462177307B8F4209149
:1020E0007004309171048217930780F0209172047C
:1020F000309173048217930748F4AB01BC0100E0F0
:1021000021E030E086E294E00E94B50F0F9108953F
:10211000AF92BF92CF92DF92EF92FF920F931F93F5
:10212000CF93DF936C01EB015A017B01E20EF31EAA
:102130009C01240F351F8701AB01BC0186E294E0AE
:102140000E94C80E811114C0DF91CF911F910F9191
:10215000FF90EF90DF90CF90BF90AF90089500E098
:102160009501AE01B60186E294E00E94B50F21967A
:10217000EC16FD06A1F7E8CFAF92BF92CF92DF92A7
:10218000EF92FF920F931F93CF93DF93EC015B01CC
:102190007A016901102F00FF1BC001E09B012F5F36
:1021A0003F4FA601461B570BB701680F791F86E208
:1021B00094E00E94B50F9E012F5F3F4FA6014C1B7C
:1021C0005D0BB5016E0D7F1D86E294E00E94B50F98
:1021D00011FF1BC001E095012F5F3F4FA6014A1977
:1021E0005B09B7016C1B7D0B86E294E00E94B50F82
:1021F0009E012F5F3F4FA6014C1B5D0BB7016A1973
:102200007B0986E294E00E94B50F13FF17C001E03E
:1022100095012F5F3F4FA601B7016C0F7D1F86E22E
:1022200094E00E94B50F9E012F5F3F4FA601B501BC
:102230006E0D7F1D86E294E00E94B50F12FF17C05D
:1022400095012F5F3F4FB7016C1B7D0B01E0A6018D
:1022500086E294E00E94B50F9E012F5F3F4FB701C9
:102260006A197B09A60186E294E00E94B50FDF910E
:10227000CF911F910F91FF90EF90DF90CF90BF9083
:10228000AF9008953F924F925F926F927F928F929C
:102290009F92AF92BF92CF92DF92EF92FF920F93F5
:1022A0001F93CF93DF932C014B01EA01322E8A0159
:1022B0000F5F1F4F060F171F9C012F5F3F4F240F0B
:1022C000351FAB014C1B5D0BBC016C1B7D0B86E20B
:1022D00094E00E94C80E882391F181E090E07C0197
:1022E000EC1AFD0ACC24DD24CC1ADD0ACC0CDD1C52
:1022F000032D9401A201BE0190E080E00E94BC1079
:1023000066246394712CB12CA12CF7FC06C0219794
:1023100082E0C80ED11CEC0CFD1C8FEFA81AB80A85
:1023200082E0680E711CE60CF71C032D9401A201DB
:10233000BE01C5010E94BC10AC16BD0630F3DF9192
:10234000CF911F910F91FF90EF90DF90CF90BF90B2
:10235000AF909F908F907F906F905F904F903F9045
:1023600008952F923F924F925F926F927F928F9239
:102370009F92AF92BF92CF92DF92EF92FF920F9314
:102380001F93CF93DF9300D000D000D0CDB7DEB73E
:102390007C015B013A013C832B831E830D83490141
:1023A000860E971E6C01C40ED51E84019601AB01EA
:1023B000BC0186E294E00E94C80E882309F479C02B
:1023C0004D805E804E0C5F1C2D803E802A0C3B1C95
:1023D0000D811E8100951095C00ED11E080D191D8E
:1023E00022E04D815E81B101C2010E94421121E0D3
:1023F0004D815E81B101C6010E94421124E04D81F0
:102400005E81B801C2010E94421128E04D815E81C7
:10241000B801C6010E94421163014D815E81C41A58
:10242000D50A2EEF3FEFC901841B950B9A83898350
:102430009FEF491A590A49815A81C40ED51E8D80D1
:102440009E805FEF851A950A9401A601B501C2012D
:102450000E9488109401A601B801C2010E94881050
:1024600029813A818D819E81281B390B4B815C81AA
:10247000240F351FB1016F5F7F4FA301C70126965F
:102480000FB6F894DEBF0FBECDBFDF91CF911F9185
:102490000F91FF90EF90DF90CF90BF90AF909F9003
:1024A0008F907F906F905F904F903F902F900C9403
:1024B000881026960FB6F894DEBF0FBECDBFDF9111
:1024C000CF911F910F91FF90EF90DF90CF90BF9031
:1024D000AF909F908F907F906F905F904F903F90C4
:1024E0002F900895213069F038F0223079F0840F70
:1024F000911D47FD9A950895860F911D67FD9A9548
:102500000895841B910947FD93950895861B9109B1
:1025100067FD93950895213069F038F0223079F005
:10252000861B910967FD93950895840F911D47FDC2
:102530009A950895860F911D67FD9A950895841BBD
:10254000910947FD939508953F924F925F926F9244
:102550007F928F929F92AF92BF92CF92DF92EF9233
:10256000FF920F931F93CF93DF937C01162F442E7E
:10257000EC01C25ADF4F5E806F806C018AE8C80EA2
:10258000D11C78847518312E711608F4372C8C8084
:102590009D800E85202F462D652D8A819B810E946E
:1025A00072125C01202F462D652DC4010E948B12F2
:1025B000AC01442079F08C85F6018083232D30E036
:1025C000B501C7010E94B50F171548F0171963949C
:1025D000512CD7CF8B858111F7CF8D85EDCF150D80
:1025E0001E836F82DF91CF911F910F91FF90EF902B
:1025F000DF90CF90BF90AF909F908F907F906F9023
:102600005F904F903F900895DC011A964C911A9775
:10261000ED91FC911197249130E0042E02C0359584
:1026200027950A94E2F7842F860F883068F0319658
:102630001196FC93EE93E49198E0941B01C0EE0F89
:102640009A95EAF72E2B88501A968C938FEF9FEF6E
:1026500001C0880F6A95EAF7809582230895FC01EE
:10266000E60FF11D849190E0982F88273196E49130
:102670008E0F911D0895CF93DF93209180043091A8
:1026800081042817390709F490C0EC019093810464
:1026900080938004FC018491809393043196E491AB
:1026A000E0939404FE013296E491E0939504FE01D8
:1026B0003396E491E0939604FE013496E491E0931E
:1026C0009704FE013596E491E0939804FE01369656
:1026D000E491E0939904FE013796E491E0939A0423
:1026E000FE013896E491E0939B04FE013996E49153
:1026F000E0939C04FE013A96E491E0939D04FE0170
:102700003B96E491E0939E04FE013C96E491E093B5
:102710009F04FE013D96E491E093A004FE013E96E5
:10272000E491E093A104FE013F96E491E093A204BA
:10273000FE017096E491E093A30461E1CE010E9452
:102740002F139093A5048093A40463E1CE010E940B
:102750002F139093A7048093A60465E1CE010E94F5
:102760002F139093A9048093A804809180049091E2
:102770008104892BD1F08091A0048093AC04409116
:10278000A1044093AD049091AB04992371F0913072
:1027900079F49091A204891714F49093AC04809179
:1027A000A304841714F48093AD04DF91CF910895AE
:1027B00030919D0420919F04082E000C990B622FEC
:1027C000022E000C770B630F711D37FD7A9586176B
:1027D00097071CF4320F3093AC04241734F720937E
:1027E000AD04E3CF4F925F926F927F928F929F9250
:1027F000AF92BF92CF92DF92EF92FF920F931F930F
:10280000CF93DF93EC016B018A017901FC01E4595C
:10281000FF4F8081813009F44BC008F43EC0823004
:1028200009F451C0833009F459C0FE01E05AFF4F4A
:10283000D182C08232961183008338978081918142
:1028400047962FEFE216F10411F008F0F2C0E1E62E
:10285000EE16F10408F44DC0FE01E058FF4F208150
:102860003181820F931F9C012F5F3F4FF9014491EB
:10287000411148C090E080E0DF91CF911F910F910E
:10288000FF90EF90DF90CF90BF90AF909F908F9090
:102890007F906F905F904F900895FE01E45AFF4F34
:1028A0000190F081E02DCE010995080F191FBDCFD1
:1028B000FE01E45AFF4F0190F081E02DCE01099511
:1028C000C81AD90AB2CFFE01E45AFF4F0190F08135
:1028D000E02DCE010995081B190BA7CFFE01E45A84
:1028E000FF4F0190F081E02DCE010995C80ED91E51
:1028F0009CCFF1E4EF16F10408F4B5CFFE01E258E5
:10290000FF4FADCFFC0144914E151F0409F08CC060
:102910000296009709F4AECF7E01FEE5EF0EF11CA2
:10292000F70191838083128673966081C7010E94AC
:102930000413F701808774966081C7010E94041315
:10294000982EF70181875E01FAE8AF0EB11CF50100
:102950009081F701948781E0911180E0F7018587EC
:10296000FE01ED58FF4FC0806C2DC7010E9404137B
:10297000582EFE01EC58FF4FD0806D2DC7010E94EC
:102980000413482EFE01EB58FF4F1081612FC70141
:102990000E9404139FEF910F01E010E0980101C025
:1029A000220F9A95EAF7882E821AF701608416148E
:1029B0000CF0ADC0CA94C80101C0880FCA94EAF7F0
:1029C000581A7684490CDA94A80101C0440FDA94AD
:1029D000EAF7F42FF4194F2E272D4F2F652DF7010D
:1029E000828193810E9472126C01F701938382832A
:1029F000272D442D652D848195810E948B12F7012E
:102A000095838483F1E07F1609F485C07F1608F46E
:102A10003FC022E0721609F48DC0E3E07E1609F48F
:102A20009DC0BC0196013EC0F9012491820F911D09
:102A30001ACFFE01EE57FF4F00811181080F191FB9
:102A4000680160E0C6010E942F13080F191F62E0A1
:102A5000C6010E942F13F4E0CF0ED11C8E159F05E6
:102A600080F3F801849190E0982F88273196E491C3
:102A70008E2B009709F4FECEE816F90619F4C8016A
:102A8000039647CFF8013296E4910E0F111DE9CF5E
:102A90009601260D311D67FC3A95BC01690D711D2B
:102AA00097FC7A958B01AC01B601CE010E94C80E4D
:102AB000882369F1F701168217828E0101591F4F91
:102AC0006E01F0E7CF0ED11CF8016081C7010E94B2
:102AD0000413682EF6016081C7010E940413782E4A
:102AE00040E0662DCE010E94A41241E0672DCE0188
:102AF0000E94A41261E0C7010E9404138111F0CF6B
:102B0000F7018781891504F38485F5018083882D79
:102B1000880C990BB1CE0919110997FC13959601F0
:102B20002F5F3F4FBC01660D711D67FC7A95C00E8B
:102B3000D11EB8CFA8014619510967FC53959601DB
:102B40002F5F3F4F0919110997FC1395BC016F5F67
:102B50007F4F800F911FC40ED51EA4CF9601290D63
:102B6000311D97FC3A950619110967FC1395BC01B4
:102B70006F5F7F4F800F911F95CF9A01AB01BC0112
:102B800086E294E00C94F213CF93DF93EC016BAFE9
:102B9000EEA9FFA90190F081E02D0995EEA9FFA90A
:102BA0000280F381E02DCE01DF91CF910994AF92A5
:102BB000BF92CF92DF92EF92FF920F931F93CF932A
:102BC000DF9300D000D01F92CDB7DEB78C01DC01BF
:102BD000DA96AC90DA97DB96EC90DB97ED91FC916E
:102BE000B188FE2CD12CC12CD801ED91FC9111970C
:102BF0008089D8962D913C911C82FD828B83B8E010
:102C00008B9FC00111248C9DA0018D9D500D9C9D1A
:102C1000500D1124240F351F3A832983D8011496AF
:102C2000ED91FC919E012F5F3F4F41E06FE0C801A5
:102C30000995F3948F2D8E198A1528F4BFEFCB1ABE
:102C4000DB0AFB1488F20F900F900F900F900F90FB
:102C5000DF91CF911F910F91FF90EF90DF90CF9078
:102C6000BF90AF900895CF92DF92EF92FF920F93B3
:102C70001F93CF93DF93EC01962F683109F44BC07B
:102C8000B901993130F49431C9F0973189F080E07D
:102C900006C0993109F461C09032C9F781E0DF9133
:102CA000CF911F910F91FF90EF90DF90CF900895FB
:102CB00050E086E993E00E942D0CF0CF8C859D8535
:102CC000AE85BF85892B8A2B8B2B71F4E881F98126
:102CD000A585B0E020EA36E841E050E00E941924E2
:102CE0006C877D878E879F87109272021092710287
:102CF00010927402109273020E94C20B81E09CE059
:102D000090939C0280939B0282E09CE09093A002AF
:102D100080939F02C3CF2C853D854E855F8560E003
:102D200074E284EF90E00E94F123205131094109BF
:102D3000510956954795379527952093B8008E8968
:102D400090E09595879591E09093500280932E02A4
:102D50001092740210927302A1CFD0917302D132FB
:102D600008F093C0C0912E020E9435086B017C01CF
:102D70008091C302811164C082E08093C30281E02C
:102D80008093C5028FEF8093C2021092E702D09326
:102D9000E602A0E3B2E0E6ECF2E080E0D8137CC00B
:102DA0001092E8028091E802CC0FC82BC093E80291
:102DB0008091C402813009F073C01092C4020E9455
:102DC00035086B017C018091E8028093BB00809103
:102DD000760290917702A0917802B0917902892BC6
:102DE0008A2B8B2B99F00E94350800917602109166
:102DF000770220917802309179026C197D098E0951
:102E00009F090617170728073907D8F18091BC00DA
:102E100083FDD9CF85EC8093BC000E9435086B01FF
:102E20007C018091C3028230E9F18091C2028F3F20
:102E300061F18091C202803241F18091C20225C0CD
:102E40008091760290917702A0917802B0917902F8
:102E5000892B8A2B8B2B09F48BCF0E94350800918C
:102E600076021091770220917802309179026C19E4
:102E70007D098E099F09061717072807390708F0EB
:102E800077CF809175020E94E00B1092740210922D
:102E900073021092500202CF9D9191938F5F7ECF6B
:102EA00085EEB9CF8091760290917702A091780259
:102EB000B0917902892B8A2B8B2B09F4B2CF0E9417
:102EC00035080091760210917702209178023091B6
:102ED00079026C197D098E099F09061717072807C3
:102EE000390708F09ECFCDCF0F931F93CF93DF9379
:102EF0008C01C62F642FCC32E8F4CA3208F041C0EE
:102F0000C83271F1C93209F442C080E0C034D0F156
:102F1000CF73F801EC0FF11D868D8F3F91F1C03119
:102F2000E0F00E94A20721E0892B09F420E0F801DB
:102F3000218F27C0CD3289F140F384EB8C0F823092
:102F400020F7CF73C00FD12FD11D8E8D411133C00B
:102F500061E00E94F90760E08E8D0E94CB0711C0EE
:102F6000025E1F4FD0E0F80181918F018F3F31F059
:102F700061E0D03108F062E00E94F907DF5FD631EE
:102F800091F781E0DF91CF911F910F91089570E04B
:102F900090E080E00E945A08F4CF85E090E0433052
:102FA00010F082E090E0880F991F880F991F059715
:102FB0000197F1F7E6CF62E00E94F907E2CF209196
:102FC000F4023091F5022817390771F49091F2025A
:102FD0008091F302981741F0E091F202F0E0E251A3
:102FE000FE4F808190E008958FEF9FEF0895EF925C
:102FF000FF920F931F93CF93DF93DC015C96ED90CC
:10300000FC905D97E114F10479F481E090E013966F
:103010009C938E93129790E080E0DF91CF911F9167
:103020000F91FF90EF9008955196ED91FC9152977A
:1030300050968C915097982F90950FB75E962C9143
:103040005E97122F127021FD6095F8942081112354
:1030500019F1282B2083E7012197F1F728E0462F6B
:1030600050E0308160FF1AC0382B3083E701219790
:10307000F1F7BA0175956795215089F7112381F011
:103080008081892380830FBF5C968D919C910197ED
:10309000F1F781E090E0C1CF2923DCCF3923E5CFE0
:1030A0009081892BEFCF2091F4023091F5022817FF
:1030B000390761F48091F3022091F20290E0805C84
:1030C0009F4F821B91098F739927089590E080E0AC
:1030D00008952091F4023091F50228173907B9F4C8
:1030E0009091F2028091F302981789F0E091F20238
:1030F000F0E0E251FE4F80812091F20230E02F5F3C
:103100003F4F2F7333272093F20290E008958FEF03
:103110009FEF08950F931F93CF93DF9310928F0427
:10312000809103018823C1F0809103018130B1F4C3
:1031300080910101882391F003E010E025E130E067
:1031400044E150E06CE070E090E080E00E94B1115A
:1031500080E00E94FA0502C08091030187E091E0BF
:103160000E943B134CE450E06EE170E082E090E09E
:103170000E94BD1581E00E94FA0580910301882319
:10318000C1F0809103018230B1F480910101882364
:1031900091F003E010E023E130E044E150E061E22F
:1031A00070E090E080E00E94B11180E00E94FA059A
:1031B00002C08091030187E091E00E943B1341E44B
:1031C00050E064E370E082E090E00E94BD1581E091
:1031D0000E94FA05D0E0C0E0BE0186E190E00E94C6
:1031E00060102196C534D105B9F7DF91CF911F91B9
:1031F0000F91089587E091E00E943B1380910001B8
:103200004DE450E0893138F48B504EE450E08E307C
:1032100010F04FE450E069E070E087E790E00C9434
:10322000BD1581E08093040180910101882351F054
:1032300080910301823030F08091030181508093AE
:103240000301089580910201823020F080910301F2
:103250008130E1F080910201813041F480910001E0
:10326000882321F0909103019230B1F08091020106
:10327000823059F48091F602882339F0909103014D
:10328000923019F481508093F602089580910201E2
:103290008150809302010895815080930001089528
:1032A000CF92DF92EF92FF920F931F93CF93DF9312
:1032B0006C01EB017B01E40EF51E10E000E0CE1581
:1032C000DF0561F06991D601ED91FC910190F081EB
:1032D000E02DC6010995080F191FF1CFC801DF9134
:1032E000CF911F910F91FF90EF90DF90CF900895B5
:1032F000CF92DF92EF92FF920F931F93CF93DF93C2
:10330000EC016C0124E0C20ED11CFC01E057FF4F20
:103310000190F081E02DC60109958E3FEFEF9E07E9
:10332000D8F48E010C561F4FF801408151817E0167
:10333000F2E9EF0EF11CF701608171819C01C60179
:103340000E94F213C059DF4F28812130C1F078F07C
:103350002230B9F02330E9F081E090E0DF91CF91A5
:103360001F910F91FF90EF90DF90CF900895F7019C
:1033700020813181820F931F91838083EDCFF801EB
:10338000F7CFF70120813181281B390B318320834E
:10339000E3CFF801F7CF089590E080E00895FB01B6
:1033A00001900020E9F73197AF01461B570BDC0174
:1033B000ED91FC910280F381E02D09948F929F9210
:1033C000AF92BF920F931F93CF93DF93CDB7DEB72A
:1033D000A1970FB6F894DEBF0FBECDBF19A2423041
:1033E00008F44AE08E010F5D1F4F842E912CB12C02
:1033F000A12CA50194010E94F123E62FB901CA0175
:10340000EA3004F5E05DD801EE938D01232B242BE7
:10341000252B79F790E080E0109729F0BD0182E23A
:1034200094E00E94CF19A1960FB6F894DEBF0FBEAC
:10343000CDBFDF91CF911F910F91BF90AF909F9023
:103440008F900895E95CDFCF85ED8093BC0080917B
:10345000760290917702A0917802B0917902079656
:10346000A11DB11D23E0B695A795979587952A953F
:10347000D1F72091BC0024FD03C01092C30208952F
:1034800040917602509177026091780270917902B2
:10349000452B462B472B69F30097A105B10541F059
:1034A0002AE22A95F1F700C00197A109B109E1CFFD
:1034B000809175020C94E00BFC01A081B1815096C3
:1034C0002C9182AD38E0839FC0011124289FA00178
:1034D000299F500D112470E060E080AD91AD0C94F7
:1034E00033241F93CF93DF93EC010E94D7151BADBC
:1034F0008AAD180FE881F9818189181768F0EC818D
:10350000FD8130E020E040E060E1CE01099580E0FF
:10351000DF91CF911F910895FE01E557FF4F808104
:10352000882319F0CE010E945C1A612FCE010E94FF
:10353000C41581E0EDCFCF93DF93EC01FC01E5579B
:10354000FF4F8081882319F0CE010E945C1A60E051
:10355000CE01DF91CF910C94C4150C94E323CF934B
:10356000DF9380910101882369F01092010181E0CD
:103570008093040164E670E080E090E0DF91CF91F9
:103580000C945A08C0910301C13009F05AC0D0917F
:103590000201D130C9F480910501823040F170E020
:1035A00060E082E00E94C60960910501615060936D
:1035B00005018091F702811102C0D093F70282E0E9
:1035C00090E00E94AD1A13C0809102018230C9F4CC
:1035D0008091F70270E060E0882389F08EE00E941D
:1035E000C6098091F70291E089278093F70281E074
:1035F0008093040168EC70E080E090E0BFCF8DE044
:10360000EECF80910201833099F4809105018F5FA4
:103610008093050170E060E081E00E94C60980911E
:10362000F702811102C0C093F70260910501C7CF74
:10363000809102018430D9F6C0930201C093010148
:10364000D6CF80910301823071F5909102019130C3
:1036500069F4809302016091000170E086E00E94AD
:10366000C6096091000190E080E0ABCF809102013B
:10367000823071F484E0809302016091F60270E080
:1036800087E00E94C6096091F60281E090E099CF40
:1036900080910201843009F0AACF81E08093020179
:1036A00080930101A4CFDF91CF9108951F920F92D3
:1036B0000FB60F9211242F933F934F935F936F9305
:1036C0007F938F939F93AF93BF93EF93FF9389EF74
:1036D00092E00E94EA06FF91EF91BF91AF919F9116
:1036E0008F917F916F915F914F913F912F910F90AB
:1036F0000FBE0F901F9018951F920F920FB60F924A
:1037000011242F938F939F93EF93FF93E0910903DD
:10371000F0910A038081E0910F03F091100382FD84
:103720001BC09081809112038F5F8F7320911303D0
:10373000821741F0E0911203F0E0E750FD4F958FC2
:1037400080931203FF91EF919F918F912F910F9092
:103750000FBE0F901F9018958081F4CF1F920F928B
:103760000FB60F9211242F933F938F939F93AF9394
:10377000BF938091EA029091EB02A091EC02B0918C
:10378000ED023091E90223E0230F2D3758F5019621
:10379000A11DB11D2093E9028093EA029093EB02F0
:1037A000A093EC02B093ED028091EE029091EF02B3
:1037B000A091F002B091F1020196A11DB11D80937C
:1037C000EE029093EF02A093F002B093F102BF914A
:1037D000AF919F918F913F912F910F900FBE0F90BE
:1037E0001F90189526E8230F0296A11DB11DD2CF78
:1037F0001F920F920FB60F9211242F933F934F9366
:103800005F936F937F938F939F93AF93BF93EF9348
:10381000FF938091B900887F803609F44AC0F0F5A3
:10382000883209F4A7C018F5803109F49BC0B8F4B8
:10383000882309F4F9C0883009F494C0FF91EF910E
:10384000BF91AF919F918F917F916F915F914F91B8
:103850003F912F910F900FBE0F901F9018958831B8
:1038600009F488C0803251F78093C20214C08034BA
:1038700009F49DC040F48033B9F38833F9F680939E
:10388000C20285ECB0C0803509F485C0883509F4E2
:1038900096C0883499F60E94241AD0CF883909F44A
:1038A0008CC038F5883729F050F4883611F080370D
:1038B00029F683E08093C3021092C10257C0883872
:1038C00009F47BC0803919F0803809F0B7CF8091B6
:1038D000C102803208F071C0E091C10281E08E0F18
:1038E0008093C1028091BB00F0E0EF55FD4F8083D3
:1038F0003DC0803B39F0E0F4803A09F479C0883A61
:1039000009F09CCF84E08093C30210929E02109233
:103910009D02E0919B02F0919C02099580919D028D
:1039200081110FC081E080939D0210927B0209C03B
:10393000803C09F4A6CF883C09F4A3CF883B09F06A
:103940007DCFE0919E0281E08E0F80939E02F0E099
:10395000E558FD4F80818093BB0090919E0280913D
:103960009D0229C08091E8028093BB0085EC809382
:10397000BC0064CF9091E7028091E602981758F559
:10398000E091E70281E08E0F8093E702F0E0EA53D6
:10399000FD4F8081E9CFE091E70281E08E0F8093B7
:1039A000E7028091BB00F0E0EA53FD4F80839091E5
:1039B000E7028091E6029817C8F285E8D8CFE09137
:1039C000E70281E08E0F8093E7028091BB00F0E078
:1039D000EA53FD4F80838091C50281115CCF81E065
:1039E0008093C40284EA8093BC001092C30226CF65
:1039F00085EC8093BC001092C3028091C10280329A
:103A000030F4E091C102F0E0EF55FD4F108260917B
:103A1000C10270E0E0919F02F091A00281EA92E081
:103A200009951092C1020ACF1092C20234CF1F92A0
:103A30000F920FB60F9211242F933F934F935F93E2
:103A40006F937F938F939F93AF93BF93EF93FF9366
:103A5000E091F402F091F502309749F0A685B78520
:103A60008585968D91FF14C09C918923A1F4FF91C7
:103A7000EF91BF91AF919F918F917F916F915F91E6
:103A80004F913F912F910F900FBE0F901F9018955F
:103A90009C91892361F7A389B4899C91858980953C
:103AA00089238C93868997890197F1F7608D718DB1
:103AB000A685B785558538E020E0CB010197F1F761
:103AC000822F90E095958795282F4C91452309F0FA
:103AD0002068315091F7868D81FD20958091F30209
:103AE00090E001968F7399273091F202381799F080
:103AF000A091F302B0E0A251BE4F2C938093F30249
:103B0000828D938D0197F1F7A389B4898C91958962
:103B1000892B8C93ACCF868D8160868FF1CFFC0191
:103B2000862F22E330E03383228320E931E035839E
:103B3000248320E233E03783268328EE33E0318785
:103B40002087138612861586148617861686118A94
:103B5000108A138A128A158A148A178A168A118E75
:103B6000108E138E128E158E148E178E168E11A235
:103B700010A213A212A215A214A217A216A211A695
:103B800010A613A612A615A614A617A616A611AA65
:103B900010AA13AA12AA14AA2FEF3FEF36AB25AB37
:103BA00030AF27AB11AE12AE13AE14AEDF01DD960F
:103BB0001D921D921D921C92139714961D921D9298
:103BC0001D921C921397149611961C921E92129697
:103BD00021E030E011963C932E93129611961C92A0
:103BE0001E9212961D921D921D921C921397608335
:103BF000718362E00C94F907CF92DF92EF92FF920B
:103C0000CF931092FC021092FB0298EEC92E93E023
:103C1000D92EE12CF12CC092FD02D092FE02E0924E
:103C2000FF02F092000389E791E09093FA028093FB
:103C3000F90285EC90E0909306038093050384ECF1
:103C400090E0909308038093070380EC90E09093BA
:103C50000A038093090381EC90E090930C03809316
:103C60000B0382EC90E090930E0380930D0386EC9F
:103C700090E09093100380930F0310921203109220
:103C800013031092140310921503109299031092CB
:103C90009803C0929A03D0929B03E0929C03F09207
:103CA0009D038BE891E0909397038093960362E0E5
:103CB00070E08BE995E00E948F1D65E070E08CE478
:103CC00095E00E948F1D63E070E08DEF94E00E940C
:103CD0008F1D1092E1041092E004C092E204D09291
:103CE000E304E092E404F092E50489EA91E0909321
:103CF000DF048093DE041092F5041092F404109215
:103D0000F7041092F6041092F9041092F80410923D
:103D1000FB041092FA046091FC046E7F6D7F609347
:103D2000FC046695617081E068278DE00E94CB07F6
:103D300061E08DE00E94F907E0E0F1E0E491E093BA
:103D4000EE04ECEEF0E0E491F0E0EE0FFF1FEB523A
:103D5000FF4F859194919093F0048093EF0460E07D
:103D60008CE00E94F9078091FC0481FD04C061E0B1
:103D70008CE00E94CB078CE08093EA04EFEFF0E048
:103D8000E491E093EB04EBEEF0E0E491F0E0EE0F71
:103D9000FF1FE553FF4F859194919093ED0480931D
:103DA000EC0484EF91E0A0E0B0E08093BE04909337
:103DB000BF04A093C004B093C1048AE0E6E0F1E040
:103DC000ACECB4E001900D928A95E1F71092D60424
:103DD00082E08093D7041092DC041092DD041092EC
:103DE0002504109224048EE795E09093B304809309
:103DF000B2041092B5041092B4041092B704109259
:103E0000B60410923E048DE991E0909323048093D0
:103E10002204109227041092260410923B04109260
:103E200032041092330410923404109235048FEF50
:103E300080933C0480934004E4E4F4E08AE594E059
:103E4000CFEFC1938E179F07E1F787E09DE0909336
:103E50002B0480932A048CEF9DE090932D04809393
:103E60002C0483E396E190932F0480932E0484E73F
:103E700097E1909331048093300430E020E040E0FB
:103E800069E086E294E00E94070D1092810410928E
:103E9000800488E895E090935B0480935A0482EA5A
:103EA00093E090935F0480935E0481E080936004CC
:103EB0001092610410928F041092AF041092AB0420
:103EC0008093B0048093B10487EB91E090935D04FC
:103ED00080935C0486E294E00E94760E109279044E
:103EE0001092780410927D0410927C048FEF9FEF63
:103EF00090937B0480937A0490937F0480937E0454
:103F0000E0915C04F0915D040280F381E02D86E293
:103F100094E0099587EF95E0909383048093820461
:103F200010929204C0934F04C0935004C093510464
:103F3000CF91FF90EF90DF90CF900895789484B563
:103F4000826084BD84B5816084BD85B5826085BD95
:103F500085B5816085BD80916E00816080936E0023
:103F60001092810080918100826080938100809115
:103F700081008160809381008091800081608093C6
:103F800080008091B10084608093B1008091B00086
:103F900081608093B00080917A00846080937A0081
:103FA00080917A00826080937A0080917A008160AB
:103FB00080937A0080917A00806880937A001092D2
:103FC000C100E0910903F0910A0382E08083E0914F
:103FD0000503F09106031082E0910703F0910803B6
:103FE0008FEC808310921103E0910D03F0910E038A
:103FF00086E08083E0910B03F0910C038081806167
:104000008083E0910B03F0910C03808188608083B2
:10401000E0910B03F0910C03808180688083E09134
:104020000B03F0910C0380818F7D8083E0912A0443
:10403000F0912B0430E020E040E06AE086E294E07A
:10404000099586E294E00E949B1A86E294E00E9421
:10405000711A8111FACF60E086E294E00E94C415E3
:10406000E0912A04F0912B0430E020E040E06BE086
:1040700086E294E0099586E294E00E949B1A02E3AE
:1040800010E0EFE3CE2ED12CE0906E04F0906F04A0
:1040900086E1E81AF108C0916C04D0916D04D695C0
:1040A000C7952C9787E091E00E943B1342E450E0D3
:1040B000B701CE010E94BD1585E692E00E943B1338
:1040C0001093B5040093B404D092B704C092B60420
:1040D00066E870E082E294E00E94480686E294E09E
:1040E0000E94711A8111D0CF85E096E09093A805C7
:1040F0008093A7058FEA9AE190935905809358051C
:1041000081E199E190930A058093090510939E053A
:1041100000939D0510934F0500934E0510930005E5
:104120000093FF041092F9041092F8041092F7041F
:104130001092F6041092F5041092F4048DE991E0C7
:104140009093FB048093FA049091EA04963108F06E
:1041500047C02DEB30E03093F5042093F4042BE9B5
:1041600031E03093F7042093F6042CE231E03093F1
:10417000F9042093F8042091680084E0983048F016
:1041800031E09E3008F430E081E001C0880F3A95BC
:10419000EAF7822B809368002DE630E0983050F0EB
:1041A0002BE630E09E3030F02CE630E0963110F017
:1041B00030E020E03093F2042093F104292F30E026
:1041C000983008F002C181E001C0880F9A95EAF7A3
:1041D0008093F3048091FA049091FB040197F1F726
:1041E0008091F8049091F904892B49F1E091F4024F
:1041F000F091F50294E0EE3DF90709F1309739F0BE
:10420000A389B4899C918589809589238C93809119
:10421000FC048E7F8093FC041092F3021092F20251
:104220008EED94E09093F5028093F402E091F10416
:10423000F091F20480819091F304892B80838EEDBC
:1042400094E09093B9048093B80481E08093D00403
:1042500070E060E08CE00E94C60960ED77E080E0ED
:1042600090E00E947C0968EC70E080E090E00E94A1
:104270005A081092DC048091D804843071F089309F
:1042800061F06FE870E089EF92E00E9448066DEB04
:1042900071E089EF92E00E94CF1990E080E00E94E7
:1042A000DB23809300018F3118F08EE180930001B1
:1042B00081E090E00E94DB238093F602863018F0C4
:1042C00085E08093F60282E090E00E94DB238093F9
:1042D00005018F3F19F481E08093050168EE73E0DA
:1042E00080E090E00E945A086091000170E086E052
:1042F0000E94C60964EF71E080E090E00E945A08D5
:1043000070E060E08FE40E94C60960E070E0CB01DD
:104310000E947C0981111092DC0461E070E08EE45F
:104320000E94C60960E070E0CB010E947C09811107
:1043300059C08FEF8093F8026091050170E07160C1
:104340008FE00E94C6091092F7025FE5E52EF12C7E
:10435000C9E1D0E068E5262E312C31E1432E512C05
:1043600041E4642E712C8BE995E00E94230A8CE4D1
:1043700095E00E94230A8DEF94E00E94230A809129
:104380000401882309F41BC186E294E00E949B1A71
:104390008FE2A82EB12C98E2C92ED12C23E4822ED4
:1043A000912C80910301813039F1823009F435C1BB
:1043B0006CEB70E089EF92E00E9448066DEB71E0D3
:1043C00089EF92E00E94CF19F2C09E3040F428504D
:1043D000310981E001C0880F2A95EAF7F9CE2E5005
:1043E0003109F7CF1092DC048091D8048B3009F0AA
:1043F000A0CF8091DA049ECF0E948A180E94FA18FA
:1044000010928F048DE290E09093B5048093B404F1
:10441000D093B704C093B60485E692E00E943B13A4
:1044200060EC71E082E294E00E94CF198EE490E0AB
:104430009093B5048093B404D093B704C093B604AA
:104440006091050170E090E080E04AE00E94DE1992
:104450003092B5042092B404D093B704C093B6044C
:104460006FE282E294E00E947819F092B504E09243
:10447000B404D093B704C093B6046091F80270E01E
:1044800090E080E04AE00E94DE19809102018130D4
:1044900099F48091010181110FC002E010E029E040
:1044A00030E04BE050E067E270E089E390E00E948A
:1044B000B11180E00E94FA0587E091E00E943B1371
:1044C0004AE450E060E370E08BE390E00E94BD15A9
:1044D00081E00E94FA0580910201823099F4809176
:1044E000010181110FC003E010E02FE030E040E156
:1044F00050E063E270E087E490E00E94B11180E058
:104500000E94FA0587E091E00E943B138091F70238
:1045100048E450E0811102C049E450E063E370E0F8
:1045200087E490E00E94BD1581E00E94FA05809129
:104530000201833099F48091010181110FC002E0E2
:1045400010E029E030E04CE050E067E270E089E5FF
:1045500090E00E94B11180E00E94FA0587E091E0AE
:104560000E943B134BE450E060E370E08BE590E089
:104570000E94BD1581E00E94FA05809102018430FD
:1045800039F480910101811103C080E00E94FA0595
:1045900087E091E00E943B1347E450E06CE370E059
:1045A00088E790E00E94BD1581E00E94FA05109214
:1045B000040186E294E00E94711A8111F2CE0E94F9
:1045C0008D088823E9F01092DC048091D8048530AE
:1045D000B9F4609105018091F802681788F46F5F63
:1045E0006093050170E071608FE00E94C6096091E0
:1045F000050182E090E00E94AD1A81E08093040101
:1046000080E090E0892B09F4AECE0E94D606882384
:1046100009F4A3CE0E940000A0CE0E948A180E9436
:10462000FA1885E692E00E943B137092B5046092FE
:10463000B4045092B7044092B60464EB70E082E296
:1046400094E00E94480610928F04B092B504A092A4
:10465000B404D092B704C092B6046DEA70E082E26E
:1046600094E00E94480680910201813019F5809102
:10467000010181111FC01091000187E091E00E94AB
:104680003B13112341F045E450E068E270E085E51A
:1046900090E00E94BD15809100018E3158F446E4EF
:1046A00050E068E270E08A3008F066C084E690E08E
:1046B0000E94BD1585E692E00E943B13F092B5047E
:1046C000E092B404D092B704C092B60460910001A5
:1046D00070E090E080E04AE00E94DE1981E00E94F4
:1046E000FA059092B5048092B4048CE390E0909324
:1046F000B7048093B6046AEA70E082E294E00E9414
:10470000480680910201823001F5809101018111FA
:104710001CC01091F60287E091E00E943B13112328
:1047200041F045E450E06CE370E085E590E00E94E4
:10473000BD158091F602853040F446E450E06CE30C
:1047400070E084E690E00E94BD1585E692E00E944C
:104750003B13F092B504E092B4048CE390E09093A4
:10476000B7048093B6046091F60270E090E080E0B8
:104770004AE00E94DE19FECE89E690E099CF89EAF0
:1047800091E09093DF048093DE048091F402909195
:10479000F5028E5D944071F4E091F104F091F20421
:1047A00090818091F3048095892380831092F50293
:1047B0001092F4020895F999FECF92BD81BDF89A46
:1047C000992780B50895262FF999FECF1FBA92BD7B
:1047D00081BD20BD0FB6F894FA9AF99A0FBE0196E2
:1047E0000895A1E21A2EAA1BBB1BFD010DC0AA1F32
:1047F000BB1FEE1FFF1FA217B307E407F50720F04A
:10480000A21BB30BE40BF50B661F771F881F991FC4
:104810001A9469F760957095809590959B01AC010D
:10482000BD01CF010895EE0FFF1F0590F491E02D1B
:1048300009940E942424A59F900DB49F900DA49FDD
:10484000800D911D11240895A29FB001B39FC00156
:10485000A39F700D811D1124911DB29F700D811DAC
:104860001124911D0895DC0101C06D934150504009
:10487000E0F7089515E0C3E5D5E004C0FE010E940D
:1048800013242196C435D107C9F7F894FFCF14013A
:10489000010201017EFF06000100000000EF181573
:1048A000A015C019FF1815A115C819FF1815AE19C4
:1048B000FF1815AF19FF1815AE15D5168015A816D7
:1048C0003F15D316001540158D161415201600152A
:1048D000A115C815DA1612158116CF15D916F115BE
:1048E000DB1640152E15A415A619FF0001140A6445
:1048F00064323200093D000004289610080202804C
:10490000004000000000000C076C0699065907CA19
:1049100006A806BC06000000005A0C2D0CCC19039A
:104920000C260C130C040C0000000078195019CC54
:1049300019CB1900000000F7176C06CC19030C53B3
:10494000186918DF17760E010F660E0D0A005472F3
:0849500061636B203A200000B6
:107800000C94343C0C94513C0C94513C0C94513CE1
:107810000C94513C0C94513C0C94513C0C94513CB4
:107820000C94513C0C94513C0C94513C0C94513CA4
:107830000C94513C0C94513C0C94513C0C94513C94
:107840000C94513C0C94513C0C94513C0C94513C84
:107850000C94513C0C94513C0C94513C0C94513C74
:107860000C94513C0C94513C11241FBECFEFD8E036
:10787000DEBFCDBF11E0A0E0B1E0ECE9FFE702C060
:1078800005900D92A230B107D9F712E0A2E0B1E065
:1078900001C01D92AD30B107E1F70E942D3D0C945F
:1078A000CC3F0C94003C982F959595959595959582
:1078B000905D8F708A307CF0282F295A8091C0000B
:1078C00085FFFCCF9093C6008091C00085FFFCCF60
:1078D0002093C6000895282F205DF0CF982F809127
:1078E000C00085FFFCCF9093C6000895EF92FF92F1
:1078F0000F931F93EE24FF2487018091C00087FD22
:1079000017C00894E11CF11C011D111D81E4E8164B
:1079100082E4F8068FE0080780E0180770F3E09132
:107920000401F091050109958091C00087FFE9CF1E
:107930008091C6001F910F91FF90EF9008950E94D3
:10794000763C982F8091C00085FFFCCF9093C600B5
:1079500091362CF490330CF09053892F089597555D
:10796000892F08951F930E949F3C182F0E949F3CCF
:107970001295107F810F1F9108951F93182F882350
:1079800021F00E94763C1150E1F71F9108951F935A
:10799000182F0E94763C803249F0809103018F5F5E
:1079A000809303018530C1F01F9108958091C0003C
:1079B00085FFFCCF84E18093C6008091C00085FFE5
:1079C000FCCF1093C6008091C00085FFFCCF80E102
:1079D0008093C6001F910895E0910401F091050184
:1079E00009951F9108950E94763C803241F0809164
:1079F00003018F5F80930301853081F008958091AA
:107A0000C00085FFFCCF84E18093C6008091C00058
:107A100085FFFCCF80E18093C6000895E0910401CA
:107A2000F09105010995089540E951E08823A1F0FE
:107A30002D9A28EE33E0FA013197F1F721503040CA
:107A4000D1F72D9828EE33E0FA013197F1F7215064
:107A50003040D1F7815061F708953F924F925F9285
:107A60006F927F928F929F92AF92BF92CF92DF924E
:107A7000EF92FF920F931F93CF93DF93000080E16B
:107A80008093C4001092C50088E18093C10086E015
:107A90008093C2005098589A259A81E00E94143D24
:107AA00024E1F22E9EE1E92E85E9D82E0FE0C02ECA
:107AB00010E1B12EAA24A394B1E49B2EA6E58A2E50
:107AC000F2E57F2EE0E26E2E79E4572E63E5462E36
:107AD00050E5352E0E94763C8033B1F18133B9F107
:107AE000803409F46FC0813409F476C0823409F41B
:107AF00085C0853409F488C0803531F1823521F1A3
:107B0000813511F1853509F485C0863509F48DC0BC
:107B1000843609F496C0843709F403C1853709F423
:107B200072C1863709F466C0809103018F5F80932C
:107B30000301853079F6E0910401F0910501099582
:107B40000E94763C803351F60E94F33CC3CF0E94E2
:107B5000763C803249F78091C00085FFFCCFF092DF
:107B6000C6008091C00085FFFCCF9092C600809136
:107B7000C00085FFFCCF8092C6008091C00085FFC9
:107B8000FCCF7092C6008091C00085FFFCCF609250
:107B9000C6008091C00085FFFCCF5092C600809146
:107BA000C00085FFFCCF4092C6008091C00085FFD9
:107BB000FCCF3092C6008091C00085FFFCCFB09210
:107BC000C60088CF0E94763C863808F4BDCF0E945C
:107BD000763C0E94F33C7ECF0E94763C803809F4CC
:107BE0009CC0813809F40BC1823809F43CC1883942
:107BF00009F48FC080E00E94C73C6CCF84E10E94F2
:107C0000BD3C0E94F33C66CF85E00E94BD3C0E94D3
:107C1000F33C60CF0E94763C809306010E94763C44
:107C2000809307010E94F33C55CF0E94763C80333D
:107C300009F41DC183E00E94BD3C80E00E94C73C66
:107C400049CF0E94763C809309020E94763C809343
:107C5000080280910C028E7F80930C020E94763C79
:107C6000853409F415C18091080290910902892B8D
:107C700089F000E010E00E94763CF801E85FFE4FDA
:107C800080830F5F1F4F80910802909109020817AF
:107C9000190788F30E94763C803209F045CF809125
:107CA0000C0280FF01C16091060170910701660F0F
:107CB000771F7093070160930601A0910802B091AD
:107CC00009021097C9F0E8E0F1E09B01AD014E0F09
:107CD0005F1FF999FECF32BD21BD819180BDFA9A17
:107CE000F99A2F5F3F4FE417F50799F76A0F7B1F4B
:107CF00070930701609306018091C00085FFFCCF5F
:107D0000F092C6008091C00085FFFCCFB092C60003
:107D1000E1CE83E00E94C73CDDCE82E00E94C73CFA
:107D2000D9CE0E94763C809309020E94763C8093D3
:107D300008028091060190910701880F991F909386
:107D40000701809306010E94763C853409F4A6C0A1
:107D500080910C028E7F80930C020E94763C8032D0
:107D600009F0B8CE8091C00085FFFCCFF092C6002C
:107D7000609108027091090261157105B9F140E046
:107D800050E080910C02A82FA170B82FB27011C0E2
:107D9000BB2309F45CC0E0910601F0910701319624
:107DA000F0930701E09306014F5F5F4F46175707B7
:107DB000E8F4AA2369F3F999FECF209106013091E6
:107DC000070132BD21BDF89A90B58091C00085FFB2
:107DD000FCCF9093C6002F5F3F4F30930701209355
:107DE00006014F5F5F4F4617570718F38091C00099
:107DF00085FDE5CE8091C00085FFF8CFE0CE81E023
:107E00000E94C73C67CE0E94763C803209F08CCE3F
:107E10008091C00085FFFCCFF092C6008091C00029
:107E200085FFFCCFE092C6008091C00085FFFCCFAB
:107E3000D092C6008091C00085FFFCCFC092C600E2
:107E40008091C00085FFFCCFB092C60043CEE09188
:107E50000601F091070194918091C00085FFFCCF4D
:107E60009093C6009CCF80E10E94C73C33CE0E9415
:107E7000763C0E94763C182F0E94763C112309F430
:107E800083C0113009F484C08FE00E94C73C22CE29
:107E900080910C02816080930C02E5CE80910C02EF
:107EA000816080930C0259CF809107018823880F4D
:107EB000880B8A2180930B02809106019091070123
:107EC000880F991F90930701809306018091080203
:107ED00080FF09C080910802909109020196909359
:107EE000090280930802F894F999FECF1127E091D6
:107EF0000601F0910701C8E0D1E08091080290915D
:107F00000902103091F40091570001700130D9F34B
:107F100003E000935700E89500915700017001308D
:107F2000D9F301E100935700E89509901990009169
:107F3000570001700130D9F301E000935700E89534
:107F40001395103498F011270091570001700130FB
:107F5000D9F305E000935700E895009157000170B0
:107F60000130D9F301E100935700E895329602976A
:107F700009F0C7CF103011F00296E5CF112480919F
:107F8000C00085FFB9CEBCCE8EE10E94C73CA2CD19
:0E7F900085E90E94C73C9ECDF894FFCF80008B
:00000001FF
